:0400000072EF0BF0A0
:10080000004374723D202020200020437974726FD1
:100810006E2000507265737353573100416D704DF7
:10082000657465720000000E806E000E816E000E11
:10083000826E010E926E010E936E000E946EB48065
:10084000B482B484C19AC198C190C182C184C18666
:10085000C294C296C298C29AC08EC080C092C08014
:10086000C28002EC0BF08DEC0CF097EC0CF0080E53
:10087000066E0A0E056E1BEC0CF0030E026EE80EFF
:10088000016E43EC0CF0400EAAEC0CF0080E066E64
:100890001C0E056E1BEC0CF08DEC0CF0000EAAEC9F
:1008A0000CF0080E066E010E056E1BEC0CF0400EEF
:1008B000AAEC0CF0080E066E130E056E1BEC0CF085
:1008C000000E3F6E000E406E000E416E000E476E31
:1008D000000E466E4750800A7F0F000ED8B4465C6B
:1008E000D8B01FD072EC0CF001C009F002C00AF0C1
:1008F000BFEC0BF009C010F00AC011F00BC012F0F1
:100900003FC013F040C014F041C015F0ADEC07F04B
:1009100010C03FF011C040F012C041F0464A472AD3
:10092000D9D73FC018F040C019F041C01AF0000EEE
:100930001B6E800E1C6E430E1D6E91EC09F018C0EC
:100940003FF019C040F01AC041F0050EAAEC0CF0BF
:100950003FC001F040C002F041C003F0FCEC09F0E0
:1009600001C027F002C028F003C029F004C02AF01B
:1009700027C010F028C011F0030E83EC08F081B0FE
:100980009FD78DEC0CF03FC001F040C002F041C099
:1009900003F0FCEC09F001C027F002C028F003C00E
:1009A00029F004C02AF027C042F028C043F0010E0D
:1009B000026EF40E016E43EC0CF081B00ED081A0FB
:1009C000FED74C6604D0010E4C6E8A8206D04C04D1
:1009D000D8A403D0000E4C6E8A924450050A4510EC
:1009E000D8A46ED0000E456E000E446E000EAAEC28
:1009F0000CF0F80E5024466EFF0E5120476E1ED0AC
:100A00004C660CD00001600E4624D96E0001000E29
:100A10004720DA6EDF5063EC0CF00ED04C04D8A403
:100A20000BD00001790E4624D96E0001000E47203C
:100A3000DA6EDF5063EC0CF0464A472A4750800AD2
:100A4000276E5050465C5150800A2758D8A0D8D7FE
:100A5000400EAAEC0CF0F80E5024466EFF0E51200A
:100A6000476E0DD00001920E4624D96E0001000E93
:100A70004720DA6EDF5063EC0CF0464A472A4750B5
:100A8000800A276E5050465C5150800A2758D8A0E3
:100A9000E9D75150800AF36E800EF35C190ED8B47A
:100AA000505CD8B003D0504A512A0CD05050190A8B
:100AB0005110D8A407D0000E516E080E506E02D00F
:100AC000444A452A000E3F6E000E406E000E416EF5
:100AD000000E476E000E466E4750800A7F0F000ED4
:100AE000D8B4465CD8B01FD072EC0CF001C009F04D
:100AF00002C00AF0BFEC0BF009C010F00AC011F000
:100B00000BC012F03FC013F040C014F041C015F00C
:100B1000ADEC07F010C03FF011C040F012C041F042
:100B2000464A472AD9D73FC018F040C019F041C003
:100B30001AF0000E1B6E800E1C6E430E1D6E91ECA3
:100B400009F018C03FF019C040F01AC041F042C08F
:100B500009F043C00AF0BFEC0BF009C00DF00AC069
:100B60000EF00BC00FF03FC010F040C011F041C0BC
:100B700012F0BAEC0AF0D8B03FD042C009F043C03E
:100B80000AF0BFEC0BF009C00DF00AC00EF00BC06C
:100B90000FF030EC0CF00DC010F00EC011F00FC0D3
:100BA00012F03FC013F040C014F041C015F0ADEC9E
:100BB00007F010C04DF011C04EF012C04FF0700E93
:100BC0000C6EA10E0D6E3B0E0E6E4DC009F04EC0A8
:100BD0000AF04FC00BF01FEC09F009C018F00AC072
:100BE00019F00BC01AF0D70E1B6E230E1C6E3D0EB3
:100BF0001D6E91EC09F054D03FC00DF040C00EF0D6
:100C000041C00FF042C009F043C00AF0BFEC0BF046
:100C100009C010F00AC011F00BC012F0BAEC0AF0D3
:100C2000D8B045D042C009F043C00AF0BFEC0BF089
:100C300009C010F00AC011F00BC012F03FC00DF057
:100C400040C00EF041C00FF030EC0CF00DC013F0BE
:100C50000EC014F00FC015F0ADEC07F010C04DF051
:100C600011C04EF012C04FF0700E0C6EA10E0D6E42
:100C70003B0E0E6E4DC009F04EC00AF04FC00BF097
:100C80001FEC09F009C018F00AC019F00BC01AF0E7
:100C9000D70E1B6E230E1C6E3D0E1D6E91EC09F0DF
:100CA00018C04DF019C04EF01AC04FF006D0000E1B
:100CB0004D6E000E4E6E000E4F6E4AC009F04BC0D6
:100CC0000AF0BFEC0BF009C00DF00AC00EF00BC02B
:100CD0000FF04DC010F04EC011F04FC012F0BAEC42
:100CE0000AF0D8B014D04DC001F04EC002F04FC091
:100CF00003F0FCEC09F001C027F002C028F003C0AB
:100D000029F004C02AF027C04AF028C04BF04C66F6
:100D100018D04DC001F04EC002F04FC003F0FCEC03
:100D200009F001C027F002C028F003C029F004C078
:100D30002AF027C010F028C011F0030EB2EC06F024
:100D40000AD04C04D8A407D04AC010F04BC011F010
:100D5000030EB2EC06F0000E026E640E016E43EC60
:100D60000CF02BD6226E20EE2BF010EE18F00A0EAF
:100D7000DECFE6FFE82EFCD7000E176E000E166ED3
:100D800010C001F011C002F0270E046E100E036EA9
:100D900049EC0BF001C020F002C021F010C001F0BE
:100DA00011C002F0270E046E100E036EE3EC0BF080
:100DB00001C01EF002C01FF01EC001F01FC002F0F3
:100DC000030E046EE80E036EE3EC0BF001C01CF0A2
:100DD00002C01DF01EC001F01FC002F0030E046E21
:100DE000E80E036E49EC0BF001C01EF002C01FF0CC
:100DF0001CC001F01DC002F0000E046E640E036EF4
:100E0000E3EC0BF001C01AF002C01BF01CC001F0B3
:100E10001DC002F0000E046E640E036E49EC0BF070
:100E200001C01CF002C01DF01AC001F01BC002F08E
:100E3000000E046E0A0E036EE3EC0BF001C018F016
:100E400002C019F01AC001F01BC002F0000E046EBF
:100E50000A0E036E49EC0BF001C01AF002C01BF041
:100E6000050E226477D0050E226E74D0FE0E126E2F
:100E7000FF0E136E2250146E156AD8901436153674
:100E80001250142613501522180E1424D96E000E79
:100E90001520DA6EDECF16F0DDCF17F020D089985E
:100EA00001D08988899202D0899804D08994899642
:100EB0003DD089888982FAD7899801D0898889921A
:100EC00002D0899803D08984F2D789888982FBD798
:100ED000899801D0898889928994898627D016C0FB
:100EE00012F017C013F01350000AD8A41FD01250EC
:100EF000000AD8B4D4D7010AD8B4D3D7030AD8B4D7
:100F0000D3D7010AD8B4D5D7070AD8B4D5D7010AA0
:100F1000D8B4D4D7030AD8B4D4D7010AD8B4D5D713
:100F20000F0AD8B4D5D7010AD8B4D4D72250030AAF
:100F3000D8A403D08B908B800CD02250020AD8A466
:100F400003D08B928B8205D02204D8A402D08B943C
:100F50008B84220622668AD7120012C016F0176A06
:100F6000186A1134163601E3178016501B6E15C02F
:100F700016F0176A186A1434163601E317801650F3
:100F80001A6E1B50D8B40CD01A501B5CD8B00FD0BE
:100F90001B5000081A24166E190E165CD8A007D034
:100FA00013C010F014C011F015C012F0ABD01A50DD
:100FB000D8B40CD01B501A5CD8B00FD01A5000080F
:100FC0001B24166E190E165CD8A007D010C010F0A6
:100FD00011C011F012C012F095D0060E196E12BE9B
:100FE000198E15BE198C118EFF0E1016FF0E1116DC
:100FF000000E1216148EFF0E1316FF0E1416000E9E
:1010000015161A501B5CD8B01AD0D8901336143667
:1010100015361A061A501B18D8B40DD0190619C067
:1010200016F0070E1616D8B406D0EFD7D8901232A5
:10103000113210321B2A1A501B62F8D71DD01B50D8
:101040001A5CD8B019D0D8901036113612361B065B
:101050001A501B18D8B40DD0190619C016F0070E77
:101060001616D8B406D0EFD7D890153214321332F2
:101070001A2A1A501B62F8D719AE0CD0FF0E101A9C
:10108000FF0E111AFF0E121A010E1026000E112269
:10109000000E122219AC0CD0FF0E131AFF0E141AF8
:1010A000FF0E151A010E1326000E1422000E152233
:1010B000000E196E105013261150142212501522D2
:1010C00015AE0ED0FF0E131AFF0E141AFF0E151ACE
:1010D000010E1326000E1422000E1522010E196EA9
:1010E00013C001F014C002F015C003F01BC004F0DF
:1010F00019C005F066EC0AF001C010F002C011F052
:1011000003C012F01200206E20EE35F010EE16F043
:101110000A0EDECFE6FFE82EFCD710C001F011C0AA
:1011200002F0270E046E100E036E49EC0BF001C0A6
:101130001EF002C01FF010C001F011C002F0270E17
:10114000046E100E036EE3EC0BF001C01CF002C045
:101150001DF01CC001F01DC002F0030E046EE80E6D
:10116000036EE3EC0BF001C01AF002C01BF01CC0D0
:1011700001F01DC002F0030E046EE80E036E49EC90
:101180000BF001C01CF002C01DF01AC001F01BC022
:1011900002F0000E046E640E036EE3EC0BF001C06F
:1011A00018F002C019F01AC001F01BC002F0000EC6
:1011B000046E640E036E49EC0BF001C01AF002C01D
:1011C0001BF018C001F019C002F0000E046E0A0EE8
:1011D000036EE3EC0BF001C016F002C017F018C06C
:1011E00001F019C002F0000E046E0A0E036E49EC05
:1011F0000BF001C018F002C019F0050E20641CD0DD
:10120000050E206E19D0FE0E126EFF0E136E2050CA
:10121000146E156AD89014361536125014261350D1
:101220001522160E1424D96E000E1520DA6EDF502A
:10123000300F63EC0CF020062066E5D712000BC0DF
:101240000FF0106A116A0A340F3601E310800F5054
:10125000126E126601D00CD00EC00FF0106A116A27
:101260000D340F3601E310800F50176E176607D04C
:10127000000E096E000E0A6E000E0B6E51D0175054
:101280007B0F12260BC017F00E50171A800E171680
:101290000A8E0D8EFF0E0C16FF0E0D16000E0E168A
:1012A000000E136E000E146E000E156E070E166EF5
:1012B00009A006D00C5013260D5014220E501522F2
:1012C000D8900B320A320932D8900C360D360E36D1
:1012D000162EEED7090E166E09A006D00C50132656
:1012E0000D5014220E501522D8900B320A320932BA
:1012F000D890153214321332162EEED713C001F0E7
:1013000014C002F015C003F012C004F017C005F0BD
:1013100066EC0AF001C009F002C00AF003C00BF04D
:1013200012001AC01EF01F6A206A19341E3601E32B
:101330001F801E50256E256601D00CD01DC01EF0EA
:101340001F6A206A1C341E3601E31F801E50266E61
:10135000266607D0000E186E000E196E000E1A6E6B
:101360004AD0000E226E000E236E000E246E265010
:10137000890F255E1AC026F01D50261A800E2616EB
:10138000198EFF0E1816FF0E1916000E1A161C8E57
:10139000FF0E1B16FF0E1C16000E1D16180E216EDA
:1013A000D8902236233624361B50185C1C5019580E
:1013B0001D501A58D8A007D01B50185E1C50195A3F
:1013C0001D501A5A2280D890183619361A36212EF6
:1013D000E7D722C001F023C002F024C003F025C0EB
:1013E00004F026C005F066EC0AF001C018F002C057
:1013F00019F003C01AF0120003C005F0066A076A6C
:101400000234053601E3068005500F6E0F6601D0E9
:1014100038D0170E056E01C006F002C007F003C0F9
:1014200008F00528096E04D0D89008320732063239
:10143000092EFAD706500A6E028EFF0E0116FF0E15
:101440000216000E031601500B6E02500C6E035074
:101450000D6E0E6A8E0E0F5E0FAE10D00F50800A0A
:10146000056EF10E800A055CD8A00BD0D8900E3224
:101470000D320C320B320F3EF9D714D0170E0F6419
:101480000FD0000E016E000E026E000E036E000EF5
:10149000046E1BD0D8900B360C360D360E360F0668
:1014A0000F66F8D70A50D8B408D00E1E0D1E0C1EB9
:1014B0000B6C000E0C220D220E220BC001F00CC092
:1014C00002F00DC003F00EC004F012000450D8B4B6
:1014D00005D0015002100310D8A40CD0000E016EEC
:1014E000000E026E000E036E44D0042AD890033220
:1014F00002320132000E0114066E000E0214076E55
:10150000FE0E0314086E065007100810D8B40CD055
:10151000ECD7042A010E0126000E0222000E03223F
:10152000D890033202320132000E0114066E000E12
:101530000214076EFF0E0314086E06500710081001
:10154000D8B406D0E6D70406D89001360236033662
:1015500002AEF9D704A0029ED890043204500312C0
:101560000550D8A4038E01C001F002C002F003C0F0
:1015700003F012000FAE16D00DC013F00EC014F021
:101580000FC015F0131E141E151E132A000E142270
:101590001522000E13240D6E000E14200E6E800E08
:1015A00015200F6E12AE16D010C013F011C014F03B
:1015B00012C015F0131E141E151E132A000E14223D
:1015C0001522000E1324106E000E1420116E800ED2
:1015D0001520126E000E0D1A000E0E1A800E0F1A34
:1015E000000E101A000E111A800E121A10500D5C07
:1015F00011500E5812500F58D8B002D0D89001D0C8
:10160000D8801200000E026E1E0E016E43EC0CF02C
:101610008A868A94050EA1EC0CF08A500F0B3009D3
:101620008A6E81EC0CF0000E026E020E016E43EC2D
:101630000CF08A500F0B30098A6E81EC0CF0000E12
:10164000026E020E016E43EC0CF08A500F0B300953
:101650008A6E81EC0CF0000E026E020E016E43ECFD
:101660000CF08A500F0B20098A6E81EC0CF0000EF2
:10167000026E020E016E43EC0CF0280E54EC0CF0DE
:10168000060E54EC0CF00C0E54EC0CF08DEC0CF03F
:101690001200000E066E000E056E04500310D8B442
:1016A0001CD0010E076E04D0D89003360436072AEA
:1016B00004AEFAD7D890053606360350015C0450C4
:1016C0000258D8A005D00350015E0450025A05808C
:1016D000D89004320332072EEDD705C001F006C0C2
:1016E00002F0120000EE2BF0250EEE6AE806FDE196
:1016F000320EF66E170EF76E000EF86E00EE60F00A
:1017000010EE4BF00900F5CFEEFFE550E150FAE1A5
:10171000600EF66E190EF76E000EF86E0900F5CF2A
:1017200050F00900F5CF51F0000EF86E000113EFF4
:1017300004F04D6F6465203D205265616C20546952
:101740006D652056616C75652020204D6F646520A5
:101750003D204D6178696D756D2056616C75652011
:101760002020202050726573732053573120746FEE
:10177000206368616E6765204D6F64652000000E10
:101780000C6E0A50800AF36E800EF35C000ED8B423
:10179000095CD8B006D0096C0A1ED8B00A2A010E1E
:1017A0000C6E09C001F00AC002F0036A8E0E046ECE
:1017B0000CC005F066EC0AF001C009F002C00AF0A6
:1017C00003C00BF0120004500310D8B418D0010E5F
:1017D000056E04D0D89003360436052A04AEFAD735
:1017E0000350015C04500258D8A004D00350015E9D
:1017F0000450025AD89004320332052EF1D701C0AA
:1018000001F002C002F01200036E03C002F0F00EFD
:1018100002168A500F0B02108A6E81EC0CF003C086
:1018200002F0023AF00E02168A500F0B02108A6E76
:1018300081EC0CF012000AD005C0F6FF06C0F7FFDD
:101840000800F55063EC0CF0054A062A05C0F6FFC7
:1018500006C0F7FF0800F5500009D8B41200ECD715
:101860007F0E0F140E100D10D8B406D0000E0D1AF6
:10187000000E0E1A800E0F1A0DC00DF00EC00EF0E5
:101880000FC00FF0120002500110D8B40CD0100E8F
:10189000036E940EE82EFED7032EFCD700D001066F
:1018A000D8A00206F0D71200046E8A94050EA1ECAF
:1018B0000CF0045004EC0CF0000E026E010E016EF0
:1018C00043EC0CF01200046E8A84050EA1EC0CF0BF
:1018D000045004EC0CF0000E026E010E016E43EC9D
:1018E0000CF01200C282C2B2FED7C350C4CF03F0C4
:1018F000046A03C004F0036A0310016E0450026E10
:1019000012000A0EA1EC0CF08A96640EA1EC0CF009
:101910008A86640EA1EC0CF01200010E54EC0CF05F
:10192000000E026E010E016E43EC0CF01200020E6E
:1019300054EC0CF0000E026E010E016E43EC0CF044
:101940001200016E04D0040EE82EFED701060166D7
:10195000FAD71200056E0550800F54EC0CF01200FF
:0219600008007D
:020000040020DA
:08000000FFFFFFFFFFFFFFFF00
:020000040030CA
:0E000000240E3F1EFF8181FF0FC00FE00F4056
:00000001FF
