:020000040000FA
:0600000072EF04F0120093
:0A0006000100020900006A0000007A
:0400100001000000EB
:0C001400010EE66E35DAE5520F0EE66EC6
:10002000E66A5CDAE552E55200016A6B380EE66E6C
:10003000E66ABCD9E552E552380EE66EE66AB6D9F4
:10004000E552E552380EE66EE66AB0D9E552E55261
:10005000280EE66EE66AAAD9E552E5520001010EC5
:100060006A6F280EE66EE66AA1D9E552E552060EE1
:10007000E66EE66A9BD9E552E5520C0EE66EE66A3C
:1000800095D9E552E55245EF00F0010EE66EE66ABD
:100090008DD9E552E5521200020EE66EE66A86D967
:1000A000E552E5521200C00EE66EE66A7FD9E552CF
:1000B000E5521200D9CFE6FFE1CFD9FFFE0EDB50AB
:1000C0008009E66EE66A72D9E552E552E552E7CF5D
:1000D000D9FF1200D9CFE6FFE1CFD9FFFE0EDBCF6B
:1000E000E6FF010EE66E62D9E552E552E552E7CF32
:1000F000D9FF1200D9CFE6FFE1CFD9FFFD0EDBCF4C
:10010000E9FFFE0EDBCFEAFFEF5024E0FD0EDBCF70
:10011000E9FFFE0EDBCFEAFFEF500A0809E0FD0E13
:10012000DBCFE9FFFE0EDBCFEAFFEF500D0802E167
:10013000BADF0AD0FD0EDBCFE9FFFE0EDBCFEAFF10
:10014000EF50E66EC7DFE552FD0EDB2AFE0E01E33F
:10015000DB2AD4D7E552E7CFD9FF1200D9CFE6FF8B
:10016000E1CFD9FF0A0EE126DE6ADD6AD950020F1F
:10017000E96EDACFEAFFEE6AEE6AEE6AEE6AEE6ADE
:10018000EE6AEE6AEE6A100E146E270E156EFC0E05
:10019000DBCF08F0FD0EDBCF09F014C00DF015C069
:1001A0000EF04CEC04F0080E08C0DBFF090E09C08D
:1001B000DBFFFC0EDBCF14F0FD0EDBCF15F0100ED5
:1001C0000D6E270E0E6E14C008F015C009F04CEC31
:1001D00004F004C014F005C015F0060E14C0DBFFD7
:1001E000070E15C0DBFF060EDBCF14F0070EDBCFCA
:1001F00015F0E80E0D6E030E0E6E14C008F015C05B
:1002000009F04CEC04F004C014F005C015F0040E25
:1002100014C0DBFF050E15C0DBFFE80E146E030EE5
:10022000156E060EDBCF08F0070EDBCF09F014C009
:100230000DF015C00EF04CEC04F0060E08C0DBFF0C
:10024000070E09C0DBFF040EDBCF14F0050EDBCF79
:1002500015F0640E0D6E0E6A14C008F015C009F09A
:100260004CEC04F004C014F005C015F0020E14C0EC
:10027000DBFF030E15C0DBFF640E146E156A040E5F
:10028000DBCF08F0050EDBCF09F014C00DF015C070
:100290000EF04CEC04F0040E08C0DBFF050E09C0A4
:1002A000DBFF020EDBCF14F0030EDBCF15F00A0EDE
:1002B0000D6E0E6A14C008F015C009F04CEC04F085
:1002C00004C014F005C015F014C0DEFF15C0DDFF3A
:1002D0000A0E146E156A020EDBCF08F0030EDBCF98
:1002E00009F014C00DF015C00EF04CEC04F0020E35
:1002F00008C0DBFF030E09C0DBFFFE0EDB50050864
:1003000005E2050EF36EFE0EF3CFDBFF080EDBCF2A
:1003100014F0090EDBCF15F0300E1424E66EDADE91
:10032000E552060EDBCF14F0070EDBCF15F0300ED2
:100330001424E66ECFDEE5522E0EE66ECBDEE552DD
:10034000040EDBCF14F0050EDBCF15F0300E1424B5
:10035000E66EC0DEE552020EDBCF14F0030EDBCFFB
:1003600015F0300E1424E66EB5DEE552410EE66E51
:10037000B1DEE5520A0EE15C02E2E16AE552E16EAD
:10038000E552E7CFD9FF1200D9CFE6FFE1CFD9FF81
:100390007CDEFD0EDBCFE6FFFE0EDBCFE6FFAADE46
:1003A000E552E552E552E7CFD9FF1200D9CFE6FF7B
:1003B000E1CFD9FFE652DF6A8150DF6E00016A05A6
:1003C0003DE1FE0EDBCFE6FF6BD8E552FD0EDB50C4
:1003D000F00BE66E73D8E552E66A54D8E552020E89
:1003E000E66EE66A7BD8E552E552010EE66E4AD823
:1003F000E552010EE66EE66A71D8E552E552FE0E50
:10040000DBCFE6FF4DD8E552FD0EDB38F00BE66E94
:1004100055D8E552E66A36D8E552020EE66EE66A2F
:100420005DD8E552E552010EE66E2CD8E552010E7C
:10043000E66EE66A53D8E552E5521DD0FE0EDBCFDC
:10044000E6FF2ED8E552FD0EDBCFE6FF37D8E552AA
:10045000E66A18D8E552020EE66EE66A3FD8E55223
:10046000E552010EE66E0ED8E552010EE66EE66A22
:1004700035D8E552E552DF50816EE552E552E7CFBF
:10048000D9FF1200D9CFE6FFE1CFD9FFFE0EDB5036
:10049000E8B08186E8A08196E552E7CFD9FF120047
:1004A000D9CFE6FFE1CFD9FFFE0EDB50E8B0818463
:1004B000E8A08194E552E7CFD9FF1200D9CFE6FF3B
:1004C000E1CFD9FFFE0EDBCFE6FF0F0E8114E55220
:1004D000E710816EE552E7CFD9FF1200D9CFE6FFD2
:1004E000E1CFD9FF060EE126DE6ADD6ADECF14F029
:1004F000DDCF15F0FD0EDBCF16F0FE0EDBCF17F0D3
:100500001450165C155017582FE3020EDB6A030EC9
:10051000DB6A020EDBCF14F0030EDBCF15F0C80E42
:10052000145C000E15581BE2040EDB6A050EDB6A34
:10053000040EDBCF14F0050EDBCF15F0190E145CA2
:10054000000E155806E2040EDB2A050E01E3DB2A35
:10055000EFD7020EDB2A030E01E3DB2ADAD7DF2A0C
:10056000010E01E3DB2AC2D7060EE15C02E2E16A7A
:0C057000E552E16EE552E7CFD9FF120022
:04057C00D9CFE6FFEE
:10058000E1CFD9FF040EE126DE6ADD6A020EDB6AE6
:10059000030EDB6A806A816A826A010E926E936E34
:1005A000930E946E0AEC00F004D9C280C282C2B2EB
:1005B000FED7C450DE6EDD6ADECF14F0DDCF15F05D
:1005C00014C015F0146A14C0DEFF15C0DDFFC3505F
:1005D000E76E000EDFCF14F0010EDBCF15F0E75011
:1005E000141214C0DEFF15C0DDFFD9CFE9FFDACF4A
:1005F000EAFFFE0ED880EE54010EED5432E2DECF5B
:1006000014F0DDCF15F0FE0E145E010E155A020E29
:1006100014C0DBFF030E15C0DBFF7D0E086E096AF8
:10062000020EDBCF0DF0030EDBCF0EF02EEC04F04C
:10063000020E06C0DBFF030E07C0DBFF800EE66E76
:100640005AEC00F0E552020EDBCFE6FF030EDBCFE3
:10065000E6FF050EE66EAEEC00F0E552E552E5521F
:100660004BD0DECF14F0DDCF15F0FE0E145C010E82
:10067000155833E2DECF14F0DDCF15F0FE0ED88032
:100680001456010E1556020E14C0DBFF030E15C0E2
:10069000DBFF7D0E086E096A020EDBCF0DF0030E44
:1006A000DBCF0EF02EEC04F0020E06C0DBFF030ED3
:1006B00007C0DBFF800EE66E5AEC00F0E552020E3A
:1006C000DBCFE6FF030EDBCFE6FF050EE66EAEECFA
:1006D00000F0E552E552E5520FD0800EE66E5AEC7E
:1006E00000F0E552000EE66EE66A050EE66EAEEC30
:1006F00000F0E552E552E55259D7FFD7FED7040E78
:10070000E15C02E2E16AE552E16EE552E7CFD9FF32
:100710001200D9CFE6FFE1CFD9FF060EE126DE6A4F
:10072000DD6ADECF14F0DDCF15F0FD0EDBCF16F065
:10073000FE0EDBCF17F01450165C155017582FE340
:10074000020EDB6A030EDB6A020EDBCF14F0030E2F
:10075000DBCF15F0C80E145C000E15581BE2040E1A
:10076000DB6A050EDB6A040EDBCF14F0050EDBCF6F
:1007700015F0190E145C000E155806E2040EDB2A63
:10078000050E01E3DB2AEFD7020EDB2A030E01E39D
:10079000DB2ADAD7DF2A010E01E3DB2AC2D7060EF5
:1007A000E15C02E2E16AE552E16EE552E7CFD9FF92
:0E07B00012000E0EC16EAA0EC06EC26A1200BA
:0207BE00060E25
:1007C000F66E000EF76E000EF86E00010900F5508F
:1007D000656F0900F550666F03E1656701D03DD094
:1007E0000900F550606F0900F550616F0900F55080
:1007F000626F09000900F550E96E0900F550EA6ED4
:10080000090009000900F550636F0900F550646F95
:1008100009000900F6CF67F0F7CF68F0F8CF69F06C
:1008200060C0F6FF61C0F7FF62C0F8FF00016353CC
:1008300002E1645307E00900F550EE6E6307F8E249
:100840006407F9D767C0F6FF68C0F7FF69C0F8FF13
:0C08500000016507000E665BBFD71200B8
:04085C0008C012F0CE
:1008600008500D02F4CF07F0F3CF06F009500E0246
:10087000F4CF09F0F3CF08F00D02F3500726F4503F
:100880000822E86A092212500E02F3500726F4509B
:080890000822E86A0922000CAD
:08089800056A046A100EE76E08
:1008A000D89008360936043605360D50045C0E50D3
:1008B000055805E30D50045E0E50055A082AE72E30
:0408C000F0D712005B
:0C08C400000EF36E00EE00F0080E01D8EC
:1008D0001200EA6002D0EE6AFCD7F350E960120021
:0408E000EE6AFCD7E9
:0C08E40013EE00F023EE00F0F86A019C17
:1008F000DFEC03F080EC04F0BEEC02F0FBD712005A
:020900001200E3
:0109020001F3
:020000040030CA
:010001003CC2
:01000300FEFE
:01000500F901
:010006009B5E
:00000001FF
